{
  "contractName": "IdentityVerification",
  "abi": [
    {
      "inputs": [
        {
          "internalType": "string",
          "name": "facebookId",
          "type": "string"
        },
        {
          "internalType": "string[3]",
          "name": "fileHashes",
          "type": "string[3]"
        }
      ],
      "name": "register",
      "outputs": [],
      "stateMutability": "nonpayable",
      "type": "function"
    },
    {
      "inputs": [
        {
          "internalType": "string",
          "name": "facebookId",
          "type": "string"
        },
        {
          "internalType": "address",
          "name": "wallet",
          "type": "address"
        }
      ],
      "name": "addWallet",
      "outputs": [],
      "stateMutability": "nonpayable",
      "type": "function"
    },
    {
      "inputs": [
        {
          "internalType": "string",
          "name": "verifierFacebookId",
          "type": "string"
        },
        {
          "internalType": "string",
          "name": "verifiedFacebookId",
          "type": "string"
        }
      ],
      "name": "verifyAnotherUser",
      "outputs": [],
      "stateMutability": "nonpayable",
      "type": "function"
    },
    {
      "inputs": [
        {
          "internalType": "string",
          "name": "facebookId",
          "type": "string"
        }
      ],
      "name": "getVerificationsForUser",
      "outputs": [
        {
          "internalType": "string[]",
          "name": "",
          "type": "string[]"
        }
      ],
      "stateMutability": "view",
      "type": "function",
      "constant": true
    },
    {
      "inputs": [
        {
          "internalType": "string",
          "name": "s",
          "type": "string"
        },
        {
          "internalType": "string[]",
          "name": "array",
          "type": "string[]"
        }
      ],
      "name": "exists",
      "outputs": [
        {
          "internalType": "bool",
          "name": "",
          "type": "bool"
        }
      ],
      "stateMutability": "pure",
      "type": "function",
      "constant": true
    }
  ],
  "bytecode": "0x608060405234801561001057600080fd5b50611579806100206000396000f3fe608060405234801561001057600080fd5b50600436106100575760003560e01c8063276bf79e1461005c5780637af2941b1461007857806382853c81146100a8578063ac9c06e3146100d8578063ebc711cc146100f4575b600080fd5b61007660048036038101906100719190610acf565b610110565b005b610092600480360381019061008d9190610c11565b6101f5565b60405161009f9190610ca4565b60405180910390f35b6100c260048036038101906100bd9190610cbf565b61029c565b6040516100cf9190610e49565b60405180910390f35b6100f260048036038101906100ed9190610e6b565b610393565b005b61010e60048036038101906101099190610fb2565b6104e9565b005b60405160200161011f9061105b565b60405160208183030381529060405280519060200120600160008373ffffffffffffffffffffffffffffffffffffffff1673ffffffffffffffffffffffffffffffffffffffff1681526020019081526020016000206040516020016101849190611168565b60405160208183030381529060405280519060200120146101a457600080fd5b81600160008373ffffffffffffffffffffffffffffffffffffffff1673ffffffffffffffffffffffffffffffffffffffff16815260200190815260200160002090816101f09190611320565b505050565b600080600090505b825181101561029057836040516020016102179190611423565b604051602081830303815290604052805190602001208382815181106102405761023f61143a565b5b60200260200101516040516020016102589190611423565b604051602081830303815290604052805190602001200361027d576001915050610296565b808061028890611498565b9150506101fd565b50600090505b92915050565b60606004826040516102ae9190611423565b9081526020016040518091039020805480602002602001604051908101604052809291908181526020016000905b828210156103885783829060005260206000200180546102fb9061109f565b80601f01602080910402602001604051908101604052809291908181526020018280546103279061109f565b80156103745780601f1061034957610100808354040283529160200191610374565b820191906000526020600020905b81548152906001019060200180831161035757829003601f168201915b5050505050815260200190600101906102dc565b505050509050919050565b61048a826004836040516103a79190611423565b9081526020016040518091039020805480602002602001604051908101604052809291908181526020016000905b828210156104815783829060005260206000200180546103f49061109f565b80601f01602080910402602001604051908101604052809291908181526020018280546104209061109f565b801561046d5780601f106104425761010080835404028352916020019161046d565b820191906000526020600020905b81548152906001019060200180831161045057829003601f168201915b5050505050815260200190600101906103d5565b505050506101f5565b1561049457600080fd5b6004816040516104a49190611423565b9081526020016040518091039020829080600181540180825580915050600190039060005260206000200160009091909190915090816104e49190611320565b505050565b60003390506000600260008373ffffffffffffffffffffffffffffffffffffffff1673ffffffffffffffffffffffffffffffffffffffff16815260200190815260200160002060009054906101000a900461ffff1661ffff161461054c57600080fd5b6000600260008373ffffffffffffffffffffffffffffffffffffffff1673ffffffffffffffffffffffffffffffffffffffff16815260200190815260200160002060009054906101000a900461ffff1661ffff16146105aa57600080fd5b6000600160003373ffffffffffffffffffffffffffffffffffffffff1673ffffffffffffffffffffffffffffffffffffffff16815260200190815260200160002080546105f69061109f565b80601f01602080910402602001604051908101604052809291908181526020018280546106229061109f565b801561066f5780601f106106445761010080835404028352916020019161066f565b820191906000526020600020905b81548152906001019060200180831161065257829003601f168201915b50505050509050336040516020016106879190611528565b60405160208183030381529060405280519060200120816040516020016106ae9190611423565b60405160208183030381529060405280519060200120146106ce57600080fd5b82600360008473ffffffffffffffffffffffffffffffffffffffff1673ffffffffffffffffffffffffffffffffffffffff16815260200190815260200160002090600361071c92919061084a565b506003600260008473ffffffffffffffffffffffffffffffffffffffff1673ffffffffffffffffffffffffffffffffffffffff16815260200190815260200160002060006101000a81548161ffff021916908361ffff1602179055506000846040516107889190611423565b9081526020016040518091039020829080600181540180825580915050600190039060005260206000200160009091909190916101000a81548173ffffffffffffffffffffffffffffffffffffffff021916908373ffffffffffffffffffffffffffffffffffffffff16021790555083600160003373ffffffffffffffffffffffffffffffffffffffff1673ffffffffffffffffffffffffffffffffffffffff16815260200190815260200160002090816108439190611320565b5050505050565b8260038101928215610885579160200282015b828111156108845782518290816108749190611320565b509160200191906001019061085d565b5b5090506108929190610896565b5090565b5b808211156108b657600081816108ad91906108ba565b50600101610897565b5090565b5080546108c69061109f565b6000825580601f106108d857506108f7565b601f0160209004906000526020600020908101906108f691906108fa565b5b50565b5b808211156109135760008160009055506001016108fb565b5090565b6000604051905090565b600080fd5b600080fd5b600080fd5b600080fd5b6000601f19601f8301169050919050565b7f4e487b7100000000000000000000000000000000000000000000000000000000600052604160045260246000fd5b61097e82610935565b810181811067ffffffffffffffff8211171561099d5761099c610946565b5b80604052505050565b60006109b0610917565b90506109bc8282610975565b919050565b600067ffffffffffffffff8211156109dc576109db610946565b5b6109e582610935565b9050602081019050919050565b82818337600083830152505050565b6000610a14610a0f846109c1565b6109a6565b905082815260208101848484011115610a3057610a2f610930565b5b610a3b8482856109f2565b509392505050565b600082601f830112610a5857610a5761092b565b5b8135610a68848260208601610a01565b91505092915050565b600073ffffffffffffffffffffffffffffffffffffffff82169050919050565b6000610a9c82610a71565b9050919050565b610aac81610a91565b8114610ab757600080fd5b50565b600081359050610ac981610aa3565b92915050565b60008060408385031215610ae657610ae5610921565b5b600083013567ffffffffffffffff811115610b0457610b03610926565b5b610b1085828601610a43565b9250506020610b2185828601610aba565b9150509250929050565b600067ffffffffffffffff821115610b4657610b45610946565b5b602082029050602081019050919050565b600080fd5b6000610b6f610b6a84610b2b565b6109a6565b90508083825260208201905060208402830185811115610b9257610b91610b57565b5b835b81811015610bd957803567ffffffffffffffff811115610bb757610bb661092b565b5b808601610bc48982610a43565b85526020850194505050602081019050610b94565b5050509392505050565b600082601f830112610bf857610bf761092b565b5b8135610c08848260208601610b5c565b91505092915050565b60008060408385031215610c2857610c27610921565b5b600083013567ffffffffffffffff811115610c4657610c45610926565b5b610c5285828601610a43565b925050602083013567ffffffffffffffff811115610c7357610c72610926565b5b610c7f85828601610be3565b9150509250929050565b60008115159050919050565b610c9e81610c89565b82525050565b6000602082019050610cb96000830184610c95565b92915050565b600060208284031215610cd557610cd4610921565b5b600082013567ffffffffffffffff811115610cf357610cf2610926565b5b610cff84828501610a43565b91505092915050565b600081519050919050565b600082825260208201905092915050565b6000819050602082019050919050565b600081519050919050565b600082825260208201905092915050565b60005b83811015610d6e578082015181840152602081019050610d53565b60008484015250505050565b6000610d8582610d34565b610d8f8185610d3f565b9350610d9f818560208601610d50565b610da881610935565b840191505092915050565b6000610dbf8383610d7a565b905092915050565b6000602082019050919050565b6000610ddf82610d08565b610de98185610d13565b935083602082028501610dfb85610d24565b8060005b85811015610e375784840389528151610e188582610db3565b9450610e2383610dc7565b925060208a01995050600181019050610dff565b50829750879550505050505092915050565b60006020820190508181036000830152610e638184610dd4565b905092915050565b60008060408385031215610e8257610e81610921565b5b600083013567ffffffffffffffff811115610ea057610e9f610926565b5b610eac85828601610a43565b925050602083013567ffffffffffffffff811115610ecd57610ecc610926565b5b610ed985828601610a43565b9150509250929050565b600067ffffffffffffffff821115610efe57610efd610946565b5b602082029050919050565b6000610f1c610f1784610ee3565b6109a6565b90508060208402830185811115610f3657610f35610b57565b5b835b81811015610f7d57803567ffffffffffffffff811115610f5b57610f5a61092b565b5b808601610f688982610a43565b85526020850194505050602081019050610f38565b5050509392505050565b600082601f830112610f9c57610f9b61092b565b5b6003610fa9848285610f09565b91505092915050565b60008060408385031215610fc957610fc8610921565b5b600083013567ffffffffffffffff811115610fe757610fe6610926565b5b610ff385828601610a43565b925050602083013567ffffffffffffffff81111561101457611013610926565b5b61102085828601610f87565b9150509250929050565b600081905092915050565b50565b600061104560008361102a565b915061105082611035565b600082019050919050565b600061106682611038565b9150819050919050565b7f4e487b7100000000000000000000000000000000000000000000000000000000600052602260045260246000fd5b600060028204905060018216806110b757607f821691505b6020821081036110ca576110c9611070565b5b50919050565b60008190508160005260206000209050919050565b600081546110f28161109f565b6110fc818661102a565b94506001821660008114611117576001811461112c5761115f565b60ff198316865281151582028601935061115f565b611135856110d0565b60005b8381101561115757815481890152600182019150602081019050611138565b838801955050505b50505092915050565b600061117482846110e5565b915081905092915050565b60006020601f8301049050919050565b600082821b905092915050565b6000600883026111cc7fffffffffffffffffffffffffffffffffffffffffffffffffffffffffffffffff8261118f565b6111d6868361118f565b95508019841693508086168417925050509392505050565b6000819050919050565b6000819050919050565b600061121d611218611213846111ee565b6111f8565b6111ee565b9050919050565b6000819050919050565b61123783611202565b61124b61124382611224565b84845461119c565b825550505050565b600090565b611260611253565b61126b81848461122e565b505050565b5b8181101561128f57611284600082611258565b600181019050611271565b5050565b601f8211156112d4576112a5816110d0565b6112ae8461117f565b810160208510156112bd578190505b6112d16112c98561117f565b830182611270565b50505b505050565b600082821c905092915050565b60006112f7600019846008026112d9565b1980831691505092915050565b600061131083836112e6565b9150826002028217905092915050565b61132982610d34565b67ffffffffffffffff81111561134257611341610946565b5b61134c825461109f565b611357828285611293565b600060209050601f83116001811461138a5760008415611378578287015190505b6113828582611304565b8655506113ea565b601f198416611398866110d0565b60005b828110156113c05784890151825560018201915060208501945060208101905061139b565b868310156113dd57848901516113d9601f8916826112e6565b8355505b6001600288020188555050505b505050505050565b60006113fd82610d34565b611407818561102a565b9350611417818560208601610d50565b80840191505092915050565b600061142f82846113f2565b915081905092915050565b7f4e487b7100000000000000000000000000000000000000000000000000000000600052603260045260246000fd5b7f4e487b7100000000000000000000000000000000000000000000000000000000600052601160045260246000fd5b60006114a3826111ee565b91507fffffffffffffffffffffffffffffffffffffffffffffffffffffffffffffffff82036114d5576114d4611469565b5b600182019050919050565b60008160601b9050919050565b60006114f8826114e0565b9050919050565b600061150a826114ed565b9050919050565b61152261151d82610a91565b6114ff565b82525050565b60006115348284611511565b6014820191508190509291505056fea2646970667358221220fe0ec8e46df45158e9c5752ff133c6c6aea381353fe4dbf7e4cef876e737fda064736f6c63430008100033",
  "immutableReferences": {},
  "source": "pragma solidity >=0.5.0 <=0.8.18;\r\n\r\ncontract IdentityVerification {\r\n\r\n\r\n    mapping(string => address[]) facebookUserToAddresses;\r\n    mapping(address => string) addressToFacebookUser; \r\n    mapping(address => uint16) numVerificationsLeftPlusOne;\r\n    mapping(address => string[3]) userFiles;\r\n\r\n    mapping(string => string[]) facebookUserVerifiers; \r\n\r\n    function register(\r\n        string memory facebookId,\r\n        string[3] memory fileHashes\r\n    ) external {\r\n        address userAddress = msg.sender;\r\n        require(numVerificationsLeftPlusOne[userAddress] == 0); // make sure user is not already registerd\r\n        require(numVerificationsLeftPlusOne[userAddress] == 0);\r\n        string memory currentFacebookUser = addressToFacebookUser[msg.sender];\r\n        require((keccak256(abi.encodePacked((currentFacebookUser))) == keccak256(abi.encodePacked((msg.sender)))));\r\n        userFiles[userAddress] = fileHashes;\r\n        numVerificationsLeftPlusOne[userAddress] = 3;\r\n        facebookUserToAddresses[facebookId].push(userAddress);\r\n        addressToFacebookUser[msg.sender] = facebookId;\r\n    }\r\n\r\n    function addWallet(string memory facebookId, address wallet) public {\r\n        require((keccak256(abi.encodePacked((addressToFacebookUser[wallet]))) == keccak256(abi.encodePacked((\"\")))));\r\n        addressToFacebookUser[wallet] = facebookId;\r\n    }\r\n\r\n    function verifyAnotherUser(\r\n        string memory verifierFacebookId,\r\n        string memory verifiedFacebookId\r\n    ) public {\r\n        require(!exists(verifierFacebookId,facebookUserVerifiers[verifiedFacebookId]));\r\n        facebookUserVerifiers[verifiedFacebookId].push(verifierFacebookId);\r\n    }\r\n\r\n    function getVerificationsForUser(\r\n        string memory facebookId\r\n    ) public view returns(string[] memory) {\r\n        return facebookUserVerifiers[facebookId];\r\n    }\r\n\r\n    function exists(string memory s, string[] memory array) public pure returns (bool) {\r\n        for (uint i = 0; i < array.length; i++) {\r\n            if ((keccak256(abi.encodePacked((array[i]))) == keccak256(abi.encodePacked((s))))) {\r\n                return true;\r\n            }\r\n        }\r\n        return false;\r\n    }\r\n\r\n}\r\n",
  "sourcePath": "C:\\Users\\omarw\\OneDrive\\Documents\\Programming\\Blockchain Identity\\Smart Contract\\contracts\\IdentityVerification.sol",
  "compiler": {
    "name": "solc",
    "version": "0.8.16+commit.07a7930e.Emscripten.clang"
  },
  "schemaVersion": "3.4.9",
  "updatedAt": "2022-09-19T16:48:28.404Z",
  "networkType": "ethereum",
  "devdoc": {
    "kind": "dev",
    "methods": {},
    "version": 1
  },
  "userdoc": {
    "kind": "user",
    "methods": {},
    "version": 1
  }
}